{
  "_format": "hh-sol-artifact-1",
  "contractName": "HospitalRBAC",
  "sourceName": "contracts/Healthcare.sol",
  "abi": [
    {
      "inputs": [],
      "stateMutability": "nonpayable",
      "type": "constructor"
    },
    {
      "anonymous": false,
      "inputs": [
        {
          "indexed": false,
          "internalType": "address",
          "name": "patient",
          "type": "address"
        },
        {
          "indexed": false,
          "internalType": "address",
          "name": "doctor",
          "type": "address"
        }
      ],
      "name": "DoctorGranted",
      "type": "event"
    },
    {
      "anonymous": false,
      "inputs": [
        {
          "indexed": false,
          "internalType": "address",
          "name": "doctor",
          "type": "address"
        }
      ],
      "name": "DoctorRegistered",
      "type": "event"
    },
    {
      "anonymous": false,
      "inputs": [
        {
          "indexed": false,
          "internalType": "address",
          "name": "patient",
          "type": "address"
        },
        {
          "indexed": false,
          "internalType": "address",
          "name": "doctor",
          "type": "address"
        }
      ],
      "name": "DoctorRevoked",
      "type": "event"
    },
    {
      "anonymous": false,
      "inputs": [
        {
          "indexed": false,
          "internalType": "address",
          "name": "patient",
          "type": "address"
        },
        {
          "indexed": false,
          "internalType": "address",
          "name": "doctor",
          "type": "address"
        },
        {
          "indexed": false,
          "internalType": "uint256",
          "name": "until",
          "type": "uint256"
        }
      ],
      "name": "EmergencyGranted",
      "type": "event"
    },
    {
      "anonymous": false,
      "inputs": [
        {
          "indexed": false,
          "internalType": "address",
          "name": "patient",
          "type": "address"
        }
      ],
      "name": "PatientRegistered",
      "type": "event"
    },
    {
      "anonymous": false,
      "inputs": [
        {
          "indexed": false,
          "internalType": "address",
          "name": "newReceptionist",
          "type": "address"
        }
      ],
      "name": "ReceptionistChanged",
      "type": "event"
    },
    {
      "anonymous": false,
      "inputs": [
        {
          "indexed": false,
          "internalType": "address",
          "name": "patient",
          "type": "address"
        },
        {
          "indexed": false,
          "internalType": "address",
          "name": "doctor",
          "type": "address"
        }
      ],
      "name": "RecordAdded",
      "type": "event"
    },
    {
      "inputs": [
        {
          "internalType": "address",
          "name": "_patient",
          "type": "address"
        },
        {
          "internalType": "string",
          "name": "_diagnosis",
          "type": "string"
        },
        {
          "internalType": "string",
          "name": "_prescription",
          "type": "string"
        },
        {
          "internalType": "string",
          "name": "_ipfsHash",
          "type": "string"
        }
      ],
      "name": "addRecord",
      "outputs": [],
      "stateMutability": "nonpayable",
      "type": "function"
    },
    {
      "inputs": [
        {
          "internalType": "address",
          "name": "newReceptionist",
          "type": "address"
        }
      ],
      "name": "changeReceptionist",
      "outputs": [],
      "stateMutability": "nonpayable",
      "type": "function"
    },
    {
      "inputs": [
        {
          "internalType": "address",
          "name": "",
          "type": "address"
        },
        {
          "internalType": "address",
          "name": "",
          "type": "address"
        }
      ],
      "name": "emergencyAccess",
      "outputs": [
        {
          "internalType": "uint256",
          "name": "",
          "type": "uint256"
        }
      ],
      "stateMutability": "view",
      "type": "function"
    },
    {
      "inputs": [],
      "name": "getMyRecords",
      "outputs": [
        {
          "components": [
            {
              "internalType": "string",
              "name": "diagnosis",
              "type": "string"
            },
            {
              "internalType": "string",
              "name": "prescription",
              "type": "string"
            },
            {
              "internalType": "string",
              "name": "ipfsHash",
              "type": "string"
            },
            {
              "internalType": "uint256",
              "name": "timestamp",
              "type": "uint256"
            },
            {
              "internalType": "address",
              "name": "doctor",
              "type": "address"
            }
          ],
          "internalType": "struct HospitalRBAC.Record[]",
          "name": "",
          "type": "tuple[]"
        }
      ],
      "stateMutability": "view",
      "type": "function"
    },
    {
      "inputs": [
        {
          "internalType": "address",
          "name": "_patient",
          "type": "address"
        }
      ],
      "name": "getPatientRecords",
      "outputs": [
        {
          "components": [
            {
              "internalType": "string",
              "name": "diagnosis",
              "type": "string"
            },
            {
              "internalType": "string",
              "name": "prescription",
              "type": "string"
            },
            {
              "internalType": "string",
              "name": "ipfsHash",
              "type": "string"
            },
            {
              "internalType": "uint256",
              "name": "timestamp",
              "type": "uint256"
            },
            {
              "internalType": "address",
              "name": "doctor",
              "type": "address"
            }
          ],
          "internalType": "struct HospitalRBAC.Record[]",
          "name": "",
          "type": "tuple[]"
        }
      ],
      "stateMutability": "view",
      "type": "function"
    },
    {
      "inputs": [
        {
          "internalType": "address",
          "name": "_doctor",
          "type": "address"
        }
      ],
      "name": "grantDoctor",
      "outputs": [],
      "stateMutability": "nonpayable",
      "type": "function"
    },
    {
      "inputs": [
        {
          "internalType": "address",
          "name": "patient",
          "type": "address"
        },
        {
          "internalType": "address",
          "name": "doctor",
          "type": "address"
        },
        {
          "internalType": "uint256",
          "name": "durationSeconds",
          "type": "uint256"
        }
      ],
      "name": "grantEmergencyAccess",
      "outputs": [],
      "stateMutability": "nonpayable",
      "type": "function"
    },
    {
      "inputs": [
        {
          "internalType": "address",
          "name": "patient",
          "type": "address"
        },
        {
          "internalType": "address",
          "name": "doctor",
          "type": "address"
        }
      ],
      "name": "hasEmergencyAccess",
      "outputs": [
        {
          "internalType": "bool",
          "name": "",
          "type": "bool"
        }
      ],
      "stateMutability": "view",
      "type": "function"
    },
    {
      "inputs": [],
      "name": "myRole",
      "outputs": [
        {
          "internalType": "enum HospitalRBAC.Role",
          "name": "",
          "type": "uint8"
        }
      ],
      "stateMutability": "view",
      "type": "function"
    },
    {
      "inputs": [
        {
          "internalType": "address",
          "name": "",
          "type": "address"
        }
      ],
      "name": "patients",
      "outputs": [
        {
          "internalType": "string",
          "name": "name",
          "type": "string"
        },
        {
          "internalType": "uint256",
          "name": "age",
          "type": "uint256"
        },
        {
          "internalType": "bool",
          "name": "registered",
          "type": "bool"
        }
      ],
      "stateMutability": "view",
      "type": "function"
    },
    {
      "inputs": [
        {
          "internalType": "address",
          "name": "",
          "type": "address"
        },
        {
          "internalType": "address",
          "name": "",
          "type": "address"
        }
      ],
      "name": "permission",
      "outputs": [
        {
          "internalType": "bool",
          "name": "",
          "type": "bool"
        }
      ],
      "stateMutability": "view",
      "type": "function"
    },
    {
      "inputs": [],
      "name": "receptionist",
      "outputs": [
        {
          "internalType": "address",
          "name": "",
          "type": "address"
        }
      ],
      "stateMutability": "view",
      "type": "function"
    },
    {
      "inputs": [
        {
          "internalType": "address",
          "name": "_doctor",
          "type": "address"
        }
      ],
      "name": "registerDoctor",
      "outputs": [],
      "stateMutability": "nonpayable",
      "type": "function"
    },
    {
      "inputs": [
        {
          "internalType": "address",
          "name": "_patient",
          "type": "address"
        },
        {
          "internalType": "string",
          "name": "_name",
          "type": "string"
        },
        {
          "internalType": "uint256",
          "name": "_age",
          "type": "uint256"
        }
      ],
      "name": "registerPatient",
      "outputs": [],
      "stateMutability": "nonpayable",
      "type": "function"
    },
    {
      "inputs": [
        {
          "internalType": "address",
          "name": "_doctor",
          "type": "address"
        }
      ],
      "name": "revokeDoctor",
      "outputs": [],
      "stateMutability": "nonpayable",
      "type": "function"
    },
    {
      "inputs": [
        {
          "internalType": "address",
          "name": "",
          "type": "address"
        }
      ],
      "name": "roles",
      "outputs": [
        {
          "internalType": "enum HospitalRBAC.Role",
          "name": "",
          "type": "uint8"
        }
      ],
      "stateMutability": "view",
      "type": "function"
    }
  ],
  "bytecode": "0x608060405234801561001057600080fd5b50336000806101000a81548173ffffffffffffffffffffffffffffffffffffffff021916908373ffffffffffffffffffffffffffffffffffffffff160217905550612d10806100606000396000f3fe608060405234801561001057600080fd5b50600436106101005760003560e01c80638a4429f311610097578063bfc45dbe11610066578063bfc45dbe146102bf578063cda20584146102ef578063e76637ce1461030b578063e8fb46961461032957610100565b80638a4429f31461021357806390218ee81461022f578063993746421461025f578063b01a5afa1461028f57610100565b80631729a801116100d35780631729a8011461018d57806318bd4847146101a9578063329f07af146101d9578063699ca998146101f757610100565b80630416af2714610105578063067a6b05146101215780630869cfbc1461013f57806313d054d714610171575b600080fd5b61011f600480360381019061011a9190611e5e565b610345565b005b6101296104c9565b6040516101369190611f02565b60405180910390f35b61015960048036038101906101549190611e5e565b61051d565b60405161016893929190611fe1565b60405180910390f35b61018b6004803603810190610186919061204b565b6105dc565b005b6101a760048036038101906101a29190611e5e565b610917565b005b6101c360048036038101906101be9190611e5e565b610a8e565b6040516101d0919061224c565b60405180910390f35b6101e1610ece565b6040516101ee919061227d565b60405180910390f35b610211600480360381019061020c9190611e5e565b610ef2565b005b61022d600480360381019061022891906123cd565b6110d5565b005b6102496004803603810190610244919061243c565b61139c565b604051610256919061247c565b60405180910390f35b61027960048036038101906102749190611e5e565b611425565b6040516102869190611f02565b60405180910390f35b6102a960048036038101906102a4919061243c565b611445565b6040516102b69190612497565b60405180910390f35b6102d960048036038101906102d4919061243c565b61146a565b6040516102e6919061247c565b60405180910390f35b61030960048036038101906103049190611e5e565b611499565b005b6103136116cf565b604051610320919061224c565b60405180910390f35b610343600480360381019061033e91906124b2565b611a34565b005b6001600281111561035957610358611e8b565b5b600160003373ffffffffffffffffffffffffffffffffffffffff1673ffffffffffffffffffffffffffffffffffffffff16815260200190815260200160002060009054906101000a900460ff1660028111156103b8576103b7611e8b565b5b146103f8576040517f08c379a00000000000000000000000000000000000000000000000000000000081526004016103ef906125b9565b60405180910390fd5b6000600460003373ffffffffffffffffffffffffffffffffffffffff1673ffffffffffffffffffffffffffffffffffffffff16815260200190815260200160002060008373ffffffffffffffffffffffffffffffffffffffff1673ffffffffffffffffffffffffffffffffffffffff16815260200190815260200160002060006101000a81548160ff0219169083151502179055507f22e403d2e970c47bf0c5435d7205c5c4a749bed24f61717475622bb9886fb48a33826040516104be9291906125d9565b60405180910390a150565b6000600160003373ffffffffffffffffffffffffffffffffffffffff1673ffffffffffffffffffffffffffffffffffffffff16815260200190815260200160002060009054906101000a900460ff16905090565b600260205280600052604060002060009150905080600001805461054090612631565b80601f016020809104026020016040519081016040528092919081815260200182805461056c90612631565b80156105b95780601f1061058e576101008083540402835291602001916105b9565b820191906000526020600020905b81548152906001019060200180831161059c57829003601f168201915b5050505050908060010154908060020160009054906101000a900460ff16905083565b60008054906101000a900473ffffffffffffffffffffffffffffffffffffffff1673ffffffffffffffffffffffffffffffffffffffff163373ffffffffffffffffffffffffffffffffffffffff161461066a576040517f08c379a0000000000000000000000000000000000000000000000000000000008152600401610661906126ae565b60405180910390fd5b60028081111561067d5761067c611e8b565b5b600160008473ffffffffffffffffffffffffffffffffffffffff1673ffffffffffffffffffffffffffffffffffffffff16815260200190815260200160002060009054906101000a900460ff1660028111156106dc576106db611e8b565b5b1461071c576040517f08c379a00000000000000000000000000000000000000000000000000000000081526004016107139061271a565b60405180910390fd5b600160028111156107305761072f611e8b565b5b600160008573ffffffffffffffffffffffffffffffffffffffff1673ffffffffffffffffffffffffffffffffffffffff16815260200190815260200160002060009054906101000a900460ff16600281111561078f5761078e611e8b565b5b146107cf576040517f08c379a00000000000000000000000000000000000000000000000000000000081526004016107c690612786565b60405180910390fd5b80426107db91906127d5565b600560008573ffffffffffffffffffffffffffffffffffffffff1673ffffffffffffffffffffffffffffffffffffffff16815260200190815260200160002060008473ffffffffffffffffffffffffffffffffffffffff1673ffffffffffffffffffffffffffffffffffffffff168152602001908152602001600020819055507fb463b68be5d84b239eef401c81424b386385d528a1517ec63a9da9bdd79b19a68383600560008773ffffffffffffffffffffffffffffffffffffffff1673ffffffffffffffffffffffffffffffffffffffff16815260200190815260200160002060008673ffffffffffffffffffffffffffffffffffffffff1673ffffffffffffffffffffffffffffffffffffffff1681526020019081526020016000205460405161090a93929190612809565b60405180910390a1505050565b60008054906101000a900473ffffffffffffffffffffffffffffffffffffffff1673ffffffffffffffffffffffffffffffffffffffff163373ffffffffffffffffffffffffffffffffffffffff16146109a5576040517f08c379a000000000000000000000000000000000000000000000000000000000815260040161099c906126ae565b60405180910390fd5b600073ffffffffffffffffffffffffffffffffffffffff168173ffffffffffffffffffffffffffffffffffffffff1603610a14576040517f08c379a0000000000000000000000000000000000000000000000000000000008152600401610a0b9061288c565b60405180910390fd5b806000806101000a81548173ffffffffffffffffffffffffffffffffffffffff021916908373ffffffffffffffffffffffffffffffffffffffff1602179055507f3a7639d42a0b4c29ac047f01c3314b02a4e9b1673fa5a74a7f5b866fbbaeb64081604051610a83919061227d565b60405180910390a150565b6060600280811115610aa357610aa2611e8b565b5b600160003373ffffffffffffffffffffffffffffffffffffffff1673ffffffffffffffffffffffffffffffffffffffff16815260200190815260200160002060009054906101000a900460ff166002811115610b0257610b01611e8b565b5b14610b42576040517f08c379a0000000000000000000000000000000000000000000000000000000008152600401610b39906128f8565b60405180910390fd5b600460008373ffffffffffffffffffffffffffffffffffffffff1673ffffffffffffffffffffffffffffffffffffffff16815260200190815260200160002060003373ffffffffffffffffffffffffffffffffffffffff1673ffffffffffffffffffffffffffffffffffffffff16815260200190815260200160002060009054906101000a900460ff1680610bdd5750610bdc823361139c565b5b610c1c576040517f08c379a0000000000000000000000000000000000000000000000000000000008152600401610c1390612964565b60405180910390fd5b600360008373ffffffffffffffffffffffffffffffffffffffff1673ffffffffffffffffffffffffffffffffffffffff168152602001908152602001600020805480602002602001604051908101604052809291908181526020016000905b82821015610ec357838290600052602060002090600502016040518060a0016040529081600082018054610cae90612631565b80601f0160208091040260200160405190810160405280929190818152602001828054610cda90612631565b8015610d275780601f10610cfc57610100808354040283529160200191610d27565b820191906000526020600020905b815481529060010190602001808311610d0a57829003601f168201915b50505050508152602001600182018054610d4090612631565b80601f0160208091040260200160405190810160405280929190818152602001828054610d6c90612631565b8015610db95780601f10610d8e57610100808354040283529160200191610db9565b820191906000526020600020905b815481529060010190602001808311610d9c57829003601f168201915b50505050508152602001600282018054610dd290612631565b80601f0160208091040260200160405190810160405280929190818152602001828054610dfe90612631565b8015610e4b5780601f10610e2057610100808354040283529160200191610e4b565b820191906000526020600020905b815481529060010190602001808311610e2e57829003601f168201915b50505050508152602001600382015481526020016004820160009054906101000a900473ffffffffffffffffffffffffffffffffffffffff1673ffffffffffffffffffffffffffffffffffffffff1673ffffffffffffffffffffffffffffffffffffffff168152505081526020019060010190610c7b565b505050509050919050565b60008054906101000a900473ffffffffffffffffffffffffffffffffffffffff1681565b60008054906101000a900473ffffffffffffffffffffffffffffffffffffffff1673ffffffffffffffffffffffffffffffffffffffff163373ffffffffffffffffffffffffffffffffffffffff1614610f80576040517f08c379a0000000000000000000000000000000000000000000000000000000008152600401610f77906126ae565b60405180910390fd5b60006002811115610f9457610f93611e8b565b5b600160008373ffffffffffffffffffffffffffffffffffffffff1673ffffffffffffffffffffffffffffffffffffffff16815260200190815260200160002060009054906101000a900460ff166002811115610ff357610ff2611e8b565b5b14611033576040517f08c379a000000000000000000000000000000000000000000000000000000000815260040161102a906129d0565b60405180910390fd5b6002600160008373ffffffffffffffffffffffffffffffffffffffff1673ffffffffffffffffffffffffffffffffffffffff16815260200190815260200160002060006101000a81548160ff0219169083600281111561109657611095611e8b565b5b02179055507f2dc8105a7545248d0e354c4c6b02fb583071cc719fb4bef1ca74d72d475570bc816040516110ca919061227d565b60405180910390a150565b60008054906101000a900473ffffffffffffffffffffffffffffffffffffffff1673ffffffffffffffffffffffffffffffffffffffff163373ffffffffffffffffffffffffffffffffffffffff1614611163576040517f08c379a000000000000000000000000000000000000000000000000000000000815260040161115a906126ae565b60405180910390fd5b6000600281111561117757611176611e8b565b5b600160008573ffffffffffffffffffffffffffffffffffffffff1673ffffffffffffffffffffffffffffffffffffffff16815260200190815260200160002060009054906101000a900460ff1660028111156111d6576111d5611e8b565b5b14611216576040517f08c379a000000000000000000000000000000000000000000000000000000000815260040161120d906129d0565b60405180910390fd5b60008111611259576040517f08c379a000000000000000000000000000000000000000000000000000000000815260040161125090612a3c565b60405180910390fd5b604051806060016040528083815260200182815260200160011515815250600260008573ffffffffffffffffffffffffffffffffffffffff1673ffffffffffffffffffffffffffffffffffffffff16815260200190815260200160002060008201518160000190816112cb9190612c08565b506020820151816001015560408201518160020160006101000a81548160ff02191690831515021790555090505060018060008573ffffffffffffffffffffffffffffffffffffffff1673ffffffffffffffffffffffffffffffffffffffff16815260200190815260200160002060006101000a81548160ff0219169083600281111561135b5761135a611e8b565b5b02179055507fc9fa2003fca4ce0dfc8cb0deae32266b715536df6685365b05b5be96ede8e49c8360405161138f919061227d565b60405180910390a1505050565b600042600560008573ffffffffffffffffffffffffffffffffffffffff1673ffffffffffffffffffffffffffffffffffffffff16815260200190815260200160002060008473ffffffffffffffffffffffffffffffffffffffff1673ffffffffffffffffffffffffffffffffffffffff1681526020019081526020016000205411905092915050565b60016020528060005260406000206000915054906101000a900460ff1681565b6005602052816000526040600020602052806000526040600020600091509150505481565b60046020528160005260406000206020528060005260406000206000915091509054906101000a900460ff1681565b600160028111156114ad576114ac611e8b565b5b600160003373ffffffffffffffffffffffffffffffffffffffff1673ffffffffffffffffffffffffffffffffffffffff16815260200190815260200160002060009054906101000a900460ff16600281111561150c5761150b611e8b565b5b1461154c576040517f08c379a0000000000000000000000000000000000000000000000000000000008152600401611543906125b9565b60405180910390fd5b60028081111561155f5761155e611e8b565b5b600160008373ffffffffffffffffffffffffffffffffffffffff1673ffffffffffffffffffffffffffffffffffffffff16815260200190815260200160002060009054906101000a900460ff1660028111156115be576115bd611e8b565b5b146115fe576040517f08c379a00000000000000000000000000000000000000000000000000000000081526004016115f59061271a565b60405180910390fd5b6001600460003373ffffffffffffffffffffffffffffffffffffffff1673ffffffffffffffffffffffffffffffffffffffff16815260200190815260200160002060008373ffffffffffffffffffffffffffffffffffffffff1673ffffffffffffffffffffffffffffffffffffffff16815260200190815260200160002060006101000a81548160ff0219169083151502179055507ff78eaeff0bfea11449c53623ba404917c96fafe2b567e9411e304998cfbd78a433826040516116c49291906125d9565b60405180910390a150565b6060600160028111156116e5576116e4611e8b565b5b600160003373ffffffffffffffffffffffffffffffffffffffff1673ffffffffffffffffffffffffffffffffffffffff16815260200190815260200160002060009054906101000a900460ff16600281111561174457611743611e8b565b5b14611784576040517f08c379a000000000000000000000000000000000000000000000000000000000815260040161177b906125b9565b60405180910390fd5b600360003373ffffffffffffffffffffffffffffffffffffffff1673ffffffffffffffffffffffffffffffffffffffff168152602001908152602001600020805480602002602001604051908101604052809291908181526020016000905b82821015611a2b57838290600052602060002090600502016040518060a001604052908160008201805461181690612631565b80601f016020809104026020016040519081016040528092919081815260200182805461184290612631565b801561188f5780601f106118645761010080835404028352916020019161188f565b820191906000526020600020905b81548152906001019060200180831161187257829003601f168201915b505050505081526020016001820180546118a890612631565b80601f01602080910402602001604051908101604052809291908181526020018280546118d490612631565b80156119215780601f106118f657610100808354040283529160200191611921565b820191906000526020600020905b81548152906001019060200180831161190457829003601f168201915b5050505050815260200160028201805461193a90612631565b80601f016020809104026020016040519081016040528092919081815260200182805461196690612631565b80156119b35780601f10611988576101008083540402835291602001916119b3565b820191906000526020600020905b81548152906001019060200180831161199657829003601f168201915b50505050508152602001600382015481526020016004820160009054906101000a900473ffffffffffffffffffffffffffffffffffffffff1673ffffffffffffffffffffffffffffffffffffffff1673ffffffffffffffffffffffffffffffffffffffff1681525050815260200190600101906117e3565b50505050905090565b600280811115611a4757611a46611e8b565b5b600160003373ffffffffffffffffffffffffffffffffffffffff1673ffffffffffffffffffffffffffffffffffffffff16815260200190815260200160002060009054906101000a900460ff166002811115611aa657611aa5611e8b565b5b14611ae6576040517f08c379a0000000000000000000000000000000000000000000000000000000008152600401611add906128f8565b60405180910390fd5b60016002811115611afa57611af9611e8b565b5b600160008673ffffffffffffffffffffffffffffffffffffffff1673ffffffffffffffffffffffffffffffffffffffff16815260200190815260200160002060009054906101000a900460ff166002811115611b5957611b58611e8b565b5b14611b99576040517f08c379a0000000000000000000000000000000000000000000000000000000008152600401611b9090612786565b60405180910390fd5b600460008573ffffffffffffffffffffffffffffffffffffffff1673ffffffffffffffffffffffffffffffffffffffff16815260200190815260200160002060003373ffffffffffffffffffffffffffffffffffffffff1673ffffffffffffffffffffffffffffffffffffffff16815260200190815260200160002060009054906101000a900460ff1680611c345750611c33843361139c565b5b611c73576040517f08c379a0000000000000000000000000000000000000000000000000000000008152600401611c6a90612964565b60405180910390fd5b600360008573ffffffffffffffffffffffffffffffffffffffff1673ffffffffffffffffffffffffffffffffffffffff1681526020019081526020016000206040518060a001604052808581526020018481526020018381526020014281526020013373ffffffffffffffffffffffffffffffffffffffff1681525090806001815401808255809150506001900390600052602060002090600502016000909190919091506000820151816000019081611d2d9190612c08565b506020820151816001019081611d439190612c08565b506040820151816002019081611d599190612c08565b506060820151816003015560808201518160040160006101000a81548173ffffffffffffffffffffffffffffffffffffffff021916908373ffffffffffffffffffffffffffffffffffffffff16021790555050507fcf46a95ed429f3df030a7824b5c00b7be7deb792b9e73ad3091d0648ba2a3f1c8433604051611dde9291906125d9565b60405180910390a150505050565b6000604051905090565b600080fd5b600080fd5b600073ffffffffffffffffffffffffffffffffffffffff82169050919050565b6000611e2b82611e00565b9050919050565b611e3b81611e20565b8114611e4657600080fd5b50565b600081359050611e5881611e32565b92915050565b600060208284031215611e7457611e73611df6565b5b6000611e8284828501611e49565b91505092915050565b7f4e487b7100000000000000000000000000000000000000000000000000000000600052602160045260246000fd5b60038110611ecb57611eca611e8b565b5b50565b6000819050611edc82611eba565b919050565b6000611eec82611ece565b9050919050565b611efc81611ee1565b82525050565b6000602082019050611f176000830184611ef3565b92915050565b600081519050919050565b600082825260208201905092915050565b60005b83811015611f57578082015181840152602081019050611f3c565b60008484015250505050565b6000601f19601f8301169050919050565b6000611f7f82611f1d565b611f898185611f28565b9350611f99818560208601611f39565b611fa281611f63565b840191505092915050565b6000819050919050565b611fc081611fad565b82525050565b60008115159050919050565b611fdb81611fc6565b82525050565b60006060820190508181036000830152611ffb8186611f74565b905061200a6020830185611fb7565b6120176040830184611fd2565b949350505050565b61202881611fad565b811461203357600080fd5b50565b6000813590506120458161201f565b92915050565b60008060006060848603121561206457612063611df6565b5b600061207286828701611e49565b935050602061208386828701611e49565b925050604061209486828701612036565b9150509250925092565b600081519050919050565b600082825260208201905092915050565b6000819050602082019050919050565b600082825260208201905092915050565b60006120e682611f1d565b6120f081856120ca565b9350612100818560208601611f39565b61210981611f63565b840191505092915050565b61211d81611fad565b82525050565b61212c81611e20565b82525050565b600060a083016000830151848203600086015261214f82826120db565b9150506020830151848203602086015261216982826120db565b9150506040830151848203604086015261218382826120db565b91505060608301516121986060860182612114565b5060808301516121ab6080860182612123565b508091505092915050565b60006121c28383612132565b905092915050565b6000602082019050919050565b60006121e28261209e565b6121ec81856120a9565b9350836020820285016121fe856120ba565b8060005b8581101561223a578484038952815161221b85826121b6565b9450612226836121ca565b925060208a01995050600181019050612202565b50829750879550505050505092915050565b6000602082019050818103600083015261226681846121d7565b905092915050565b61227781611e20565b82525050565b6000602082019050612292600083018461226e565b92915050565b600080fd5b600080fd5b7f4e487b7100000000000000000000000000000000000000000000000000000000600052604160045260246000fd5b6122da82611f63565b810181811067ffffffffffffffff821117156122f9576122f86122a2565b5b80604052505050565b600061230c611dec565b905061231882826122d1565b919050565b600067ffffffffffffffff821115612338576123376122a2565b5b61234182611f63565b9050602081019050919050565b82818337600083830152505050565b600061237061236b8461231d565b612302565b90508281526020810184848401111561238c5761238b61229d565b5b61239784828561234e565b509392505050565b600082601f8301126123b4576123b3612298565b5b81356123c484826020860161235d565b91505092915050565b6000806000606084860312156123e6576123e5611df6565b5b60006123f486828701611e49565b935050602084013567ffffffffffffffff81111561241557612414611dfb565b5b6124218682870161239f565b925050604061243286828701612036565b9150509250925092565b6000806040838503121561245357612452611df6565b5b600061246185828601611e49565b925050602061247285828601611e49565b9150509250929050565b60006020820190506124916000830184611fd2565b92915050565b60006020820190506124ac6000830184611fb7565b92915050565b600080600080608085870312156124cc576124cb611df6565b5b60006124da87828801611e49565b945050602085013567ffffffffffffffff8111156124fb576124fa611dfb565b5b6125078782880161239f565b935050604085013567ffffffffffffffff81111561252857612527611dfb565b5b6125348782880161239f565b925050606085013567ffffffffffffffff81111561255557612554611dfb565b5b6125618782880161239f565b91505092959194509250565b7f50617469656e74206f6e6c790000000000000000000000000000000000000000600082015250565b60006125a3600c83611f28565b91506125ae8261256d565b602082019050919050565b600060208201905081810360008301526125d281612596565b9050919050565b60006040820190506125ee600083018561226e565b6125fb602083018461226e565b9392505050565b7f4e487b7100000000000000000000000000000000000000000000000000000000600052602260045260246000fd5b6000600282049050600182168061264957607f821691505b60208210810361265c5761265b612602565b5b50919050565b7f4163636573732064656e69656400000000000000000000000000000000000000600082015250565b6000612698600d83611f28565b91506126a382612662565b602082019050919050565b600060208201905081810360008301526126c78161268b565b9050919050565b7f4e6f7420646f63746f7200000000000000000000000000000000000000000000600082015250565b6000612704600a83611f28565b915061270f826126ce565b602082019050919050565b60006020820190508181036000830152612733816126f7565b9050919050565b7f4e6f742070617469656e74000000000000000000000000000000000000000000600082015250565b6000612770600b83611f28565b915061277b8261273a565b602082019050919050565b6000602082019050818103600083015261279f81612763565b9050919050565b7f4e487b7100000000000000000000000000000000000000000000000000000000600052601160045260246000fd5b60006127e082611fad565b91506127eb83611fad565b9250828201905080821115612803576128026127a6565b5b92915050565b600060608201905061281e600083018661226e565b61282b602083018561226e565b6128386040830184611fb7565b949350505050565b7f496e76616c696420616464726573730000000000000000000000000000000000600082015250565b6000612876600f83611f28565b915061288182612840565b602082019050919050565b600060208201905081810360008301526128a581612869565b9050919050565b7f446f63746f72206f6e6c79000000000000000000000000000000000000000000600082015250565b60006128e2600b83611f28565b91506128ed826128ac565b602082019050919050565b60006020820190508181036000830152612911816128d5565b9050919050565b7f4e6f207065726d697373696f6e00000000000000000000000000000000000000600082015250565b600061294e600d83611f28565b915061295982612918565b602082019050919050565b6000602082019050818103600083015261297d81612941565b9050919050565b7f416c726561647920726567697374657265640000000000000000000000000000600082015250565b60006129ba601283611f28565b91506129c582612984565b602082019050919050565b600060208201905081810360008301526129e9816129ad565b9050919050565b7f496e76616c696420616765000000000000000000000000000000000000000000600082015250565b6000612a26600b83611f28565b9150612a31826129f0565b602082019050919050565b60006020820190508181036000830152612a5581612a19565b9050919050565b60008190508160005260206000209050919050565b60006020601f8301049050919050565b600082821b905092915050565b600060088302612abe7fffffffffffffffffffffffffffffffffffffffffffffffffffffffffffffffff82612a81565b612ac88683612a81565b95508019841693508086168417925050509392505050565b6000819050919050565b6000612b05612b00612afb84611fad565b612ae0565b611fad565b9050919050565b6000819050919050565b612b1f83612aea565b612b33612b2b82612b0c565b848454612a8e565b825550505050565b600090565b612b48612b3b565b612b53818484612b16565b505050565b5b81811015612b7757612b6c600082612b40565b600181019050612b59565b5050565b601f821115612bbc57612b8d81612a5c565b612b9684612a71565b81016020851015612ba5578190505b612bb9612bb185612a71565b830182612b58565b50505b505050565b600082821c905092915050565b6000612bdf60001984600802612bc1565b1980831691505092915050565b6000612bf88383612bce565b9150826002028217905092915050565b612c1182611f1d565b67ffffffffffffffff811115612c2a57612c296122a2565b5b612c348254612631565b612c3f828285612b7b565b600060209050601f831160018114612c725760008415612c60578287015190505b612c6a8582612bec565b865550612cd2565b601f198416612c8086612a5c565b60005b82811015612ca857848901518255600182019150602085019450602081019050612c83565b86831015612cc55784890151612cc1601f891682612bce565b8355505b6001600288020188555050505b50505050505056fea2646970667358221220e28b0cd43d30f25bc0100d558f2ee0fe1a7d010a0146ad5b1150e9a143186bb764736f6c63430008140033",
  "linkReferences": {},
  "deployedLinkReferences": {}
}